"use strict";(self.webpackChunk=self.webpackChunk||[]).push([[44959],{603905:(e,t,a)=>{a.d(t,{Zo:()=>d,kt:()=>m});var n=a(667294);function r(e,t,a){return t in e?Object.defineProperty(e,t,{value:a,enumerable:!0,configurable:!0,writable:!0}):e[t]=a,e}function i(e,t){var a=Object.keys(e);if(Object.getOwnPropertySymbols){var n=Object.getOwnPropertySymbols(e);t&&(n=n.filter((function(t){return Object.getOwnPropertyDescriptor(e,t).enumerable}))),a.push.apply(a,n)}return a}function o(e){for(var t=1;t<arguments.length;t++){var a=null!=arguments[t]?arguments[t]:{};t%2?i(Object(a),!0).forEach((function(t){r(e,t,a[t])})):Object.getOwnPropertyDescriptors?Object.defineProperties(e,Object.getOwnPropertyDescriptors(a)):i(Object(a)).forEach((function(t){Object.defineProperty(e,t,Object.getOwnPropertyDescriptor(a,t))}))}return e}function s(e,t){if(null==e)return{};var a,n,r=function(e,t){if(null==e)return{};var a,n,r={},i=Object.keys(e);for(n=0;n<i.length;n++)a=i[n],t.indexOf(a)>=0||(r[a]=e[a]);return r}(e,t);if(Object.getOwnPropertySymbols){var i=Object.getOwnPropertySymbols(e);for(n=0;n<i.length;n++)a=i[n],t.indexOf(a)>=0||Object.prototype.propertyIsEnumerable.call(e,a)&&(r[a]=e[a])}return r}var c=n.createContext({}),l=function(e){var t=n.useContext(c),a=t;return e&&(a="function"==typeof e?e(t):o(o({},t),e)),a},d=function(e){var t=l(e.components);return n.createElement(c.Provider,{value:t},e.children)},p="mdxType",u={inlineCode:"code",wrapper:function(e){var t=e.children;return n.createElement(n.Fragment,{},t)}},h=n.forwardRef((function(e,t){var a=e.components,r=e.mdxType,i=e.originalType,c=e.parentName,d=s(e,["components","mdxType","originalType","parentName"]),p=l(a),h=r,m=p["".concat(c,".").concat(h)]||p[h]||u[h]||i;return a?n.createElement(m,o(o({ref:t},d),{},{components:a})):n.createElement(m,o({ref:t},d))}));function m(e,t){var a=arguments,r=t&&t.mdxType;if("string"==typeof e||r){var i=a.length,o=new Array(i);o[0]=h;var s={};for(var c in t)hasOwnProperty.call(t,c)&&(s[c]=t[c]);s.originalType=e,s[p]="string"==typeof e?e:r,o[1]=s;for(var l=2;l<i;l++)o[l]=a[l];return n.createElement.apply(null,o)}return n.createElement.apply(null,a)}h.displayName="MDXCreateElement"},357614:(e,t,a)=>{a.r(t),a.d(t,{assets:()=>c,contentTitle:()=>o,default:()=>u,frontMatter:()=>i,metadata:()=>s,toc:()=>l});var n=a(487462),r=(a(667294),a(603905));const i={},o="Transactions",s={unversionedId:"decentralized-applications/ethereum/06-transactions",id:"decentralized-applications/ethereum/06-transactions",title:"Transactions",description:"Transactions are cryptographically signed instructions from accounts. An account will initiate a transaction to update the state of the Ethereum network. The simplest transaction is transferring ETH from one account to another.",source:"@site/docs/decentralized-applications/ethereum/06-transactions.md",sourceDirName:"decentralized-applications/ethereum",slug:"/decentralized-applications/ethereum/06-transactions",permalink:"/decentralized-applications/ethereum/06-transactions",draft:!1,editUrl:"https://github.com/deepaksood619/deepaksood619.github.io/tree/main/docs/decentralized-applications/ethereum/06-transactions.md",tags:[],version:"current",lastUpdatedAt:1678191863,formattedLastUpdatedAt:"Mar 7, 2023",frontMatter:{},sidebar:"tutorialSidebar",previous:{title:"Ethereum Accounts",permalink:"/decentralized-applications/ethereum/05-accounts"},next:{title:"Blocks",permalink:"/decentralized-applications/ethereum/07-blocks"}},c={},l=[{value:"What&#39;s a transaction?",id:"whats-a-transaction",level:2},{value:"The data field",id:"the-data-field",level:3},{value:"Types of transactions",id:"types-of-transactions",level:2},{value:"On gas",id:"on-gas",level:3},{value:"Transaction lifecycle",id:"transaction-lifecycle",level:2},{value:"A visual demo",id:"a-visual-demo",level:2},{value:"Typed Transaction Envelope",id:"typed-transaction-envelope",level:2},{value:"Coinbase Transactions",id:"coinbase-transactions",level:2},{value:"Characteristics of Coinbase Transactions",id:"characteristics-of-coinbase-transactions",level:3},{value:"Further reading",id:"further-reading",level:2}],d={toc:l},p="wrapper";function u(e){let{components:t,...i}=e;return(0,r.kt)(p,(0,n.Z)({},d,i,{components:t,mdxType:"MDXLayout"}),(0,r.kt)("h1",{id:"transactions"},"Transactions"),(0,r.kt)("p",null,"Transactions are cryptographically signed instructions from accounts. An account will initiate a transaction to update the state of the Ethereum network. The simplest transaction is transferring ETH from one account to another."),(0,r.kt)("h2",{id:"whats-a-transaction"},"What's a transaction?"),(0,r.kt)("p",null,"An Ethereum transaction refers to an action initiated by an externally-owned account, in other words an account managed by a human, not a contract. For example, if Bob sends Alice 1 ETH, Bob's account must be debited and Alice's must be credited. This state-changing action takes place within a transaction."),(0,r.kt)("p",null,"Transactions, which change the state of the EVM, need to be broadcast to the whole network. Any node can broadcast a request for a transaction to be executed on the EVM; after this happens, a validator will execute the transaction and propagate the resulting state change to the rest of the network."),(0,r.kt)("p",null,"Transactions require a fee and must be included in a validated block. To make this overview simpler we'll cover gas fees and validation elsewhere."),(0,r.kt)("p",null,"A submitted transaction includes the following information:"),(0,r.kt)("ul",null,(0,r.kt)("li",{parentName:"ul"},(0,r.kt)("inlineCode",{parentName:"li"},"from")," \u2013 the address of the sender, that will be signing the transaction. This will be an externally-owned account as contract accounts cannot send transactions."),(0,r.kt)("li",{parentName:"ul"},(0,r.kt)("inlineCode",{parentName:"li"},"recipient")," \u2013 the receiving address (if an externally-owned account, the transaction will transfer value. If a contract account, the transaction will execute the contract code)"),(0,r.kt)("li",{parentName:"ul"},(0,r.kt)("inlineCode",{parentName:"li"},"signature")," \u2013 the identifier of the sender. This is generated when the sender's private key signs the transaction and confirms the sender has authorized this transaction"),(0,r.kt)("li",{parentName:"ul"},(0,r.kt)("inlineCode",{parentName:"li"},"nonce")," - a sequencially incrementing counter which indicates the transaction number from the account"),(0,r.kt)("li",{parentName:"ul"},(0,r.kt)("inlineCode",{parentName:"li"},"value")," \u2013 amount of ETH to transfer from sender to recipient (denominated in WEI, where 1ETH equals 1e+18wei)"),(0,r.kt)("li",{parentName:"ul"},(0,r.kt)("inlineCode",{parentName:"li"},"data")," \u2013 optional field to include arbitrary data"),(0,r.kt)("li",{parentName:"ul"},(0,r.kt)("inlineCode",{parentName:"li"},"gasLimit")," \u2013 the maximum amount of gas units that can be consumed by the transaction. The ",(0,r.kt)("a",{parentName:"li",href:"https://ethereum.org/en/developers/docs/evm/opcodes"},"EVM")," specifies the units of gas required by each computational step"),(0,r.kt)("li",{parentName:"ul"},(0,r.kt)("inlineCode",{parentName:"li"},"maxPriorityFeePerGas")," - the maximum price of the consumed gas to be included as a tip to the validator"),(0,r.kt)("li",{parentName:"ul"},(0,r.kt)("inlineCode",{parentName:"li"},"maxFeePerGas")," - the maximum fee per unit of gas willing to be paid for the transaction (inclusive of ",(0,r.kt)("inlineCode",{parentName:"li"},"baseFeePerGas")," and ",(0,r.kt)("inlineCode",{parentName:"li"},"maxPriorityFeePerGas"),")")),(0,r.kt)("p",null,"Gas is a reference to the computation required to process the transaction by a validator. Users have to pay a fee for this computation. The ",(0,r.kt)("inlineCode",{parentName:"p"},"gasLimit"),", and ",(0,r.kt)("inlineCode",{parentName:"p"},"maxPriorityFeePerGas")," determine the maximum transaction fee paid to the validator. ",(0,r.kt)("a",{parentName:"p",href:"https://ethereum.org/en/developers/docs/gas/"},"More on Gas"),"."),(0,r.kt)("p",null,"The transaction object will look a little like this:"),(0,r.kt)("pre",null,(0,r.kt)("code",{parentName:"pre",className:"language-json"},'{\n  from: "0xEA674fdDe714fd979de3EdF0F56AA9716B898ec8",\n  to: "0xac03bb73b6a9e108530aff4df5077c2b3d481e5a",\n  gasLimit: "21000",\n  maxFeePerGas: "300",\n  maxPriorityFeePerGas: "10",\n  nonce: "0",\n  value: "10000000000"\n}\n')),(0,r.kt)("p",null,"But a transaction object needs to be signed using the sender's private key. This proves that the transaction could only have come from the sender and was not sent fraudulently."),(0,r.kt)("p",null,"An Ethereum client like Geth will handle this signing process."),(0,r.kt)("p",null,"Example ",(0,r.kt)("a",{parentName:"p",href:"https://ethereum.org/en/developers/docs/apis/json-rpc/"},"JSON-RPC")," call:"),(0,r.kt)("pre",null,(0,r.kt)("code",{parentName:"pre",className:"language-json"},'{\n  "id": 2,\n  "jsonrpc": "2.0",\n  "method": "account_signTransaction",\n  "params": [\n    {\n      "from": "0x1923f626bb8dc025849e00f99c25fe2b2f7fb0db",\n      "gas": "0x55555",\n      "maxFeePerGas": "0x1234",\n      "maxPriorityFeePerGas": "0x1234",\n      "input": "0xabcd",\n      "nonce": "0x0",\n      "to": "0x07a565b7ed7d7a678680a4c162885bedbb695fe0",\n      "value": "0x1234"\n    }\n  ]\n}\n')),(0,r.kt)("p",null,"Example response:"),(0,r.kt)("pre",null,(0,r.kt)("code",{parentName:"pre",className:"language-json"},'{\n  "jsonrpc": "2.0",\n  "id": 2,\n  "result": {\n    "raw": "0xf88380018203339407a565b7ed7d7a678680a4c162885bedbb695fe080a44401a6e4000000000000000000000000000000000000000000000000000000000000001226a0223a7c9bcf5531c99be5ea7082183816eb20cfe0bbc322e97cc5c7f71ab8b20ea02aadee6b34b45bb15bc42d9c09de4a6754e7000908da72d48cc7704971491663",\n    "tx": {\n      "nonce": "0x0",\n      "maxFeePerGas": "0x1234",\n      "maxPriorityFeePerGas": "0x1234",\n      "gas": "0x55555",\n      "to": "0x07a565b7ed7d7a678680a4c162885bedbb695fe0",\n      "value": "0x1234",\n      "input": "0xabcd",\n      "v": "0x26",\n      "r": "0x223a7c9bcf5531c99be5ea7082183816eb20cfe0bbc322e97cc5c7f71ab8b20e",\n      "s": "0x2aadee6b34b45bb15bc42d9c09de4a6754e7000908da72d48cc7704971491663",\n      "hash": "0xeba2df809e7a612a0a0d444ccfa5c839624bdc00dd29e3340d46df3870f8a30e"\n    }\n  }\n}\n\n')),(0,r.kt)("ul",null,(0,r.kt)("li",{parentName:"ul"},"the ",(0,r.kt)("inlineCode",{parentName:"li"},"raw")," is the signed transaction in Recursive Length Prefix (RLP) encoded form"),(0,r.kt)("li",{parentName:"ul"},"the ",(0,r.kt)("inlineCode",{parentName:"li"},"tx")," is the signed transaction in JSON form")),(0,r.kt)("p",null,"With the signature hash, the transaction can be cryptographically proven that it came from the sender and submitted to the network."),(0,r.kt)("h3",{id:"the-data-field"},"The data field"),(0,r.kt)("p",null,"The vast majority of transactions access a contract from an externally-owned account. Most contracts are written in Solidity and interpret their data field in accordance with the ",(0,r.kt)("a",{parentName:"p",href:"https://ethereum.org/en/glossary/#abi"},"application binary interface (ABI)"),"."),(0,r.kt)("p",null,"The first four bytes specify which function to call, using the hash of the function's name and arguments. You can sometimes identify the function from the selector using ",(0,r.kt)("a",{parentName:"p",href:"https://www.4byte.directory/signatures/"},"this database"),"."),(0,r.kt)("p",null,"The rest of the calldata is the arguments, ",(0,r.kt)("a",{parentName:"p",href:"https://docs.soliditylang.org/en/latest/abi-spec.html#formal-specification-of-the-encoding"},"encoded as specified in the ABI specs"),"."),(0,r.kt)("p",null,"For example, lets look at ",(0,r.kt)("a",{parentName:"p",href:"https://etherscan.io/tx/0xd0dcbe007569fcfa1902dae0ab8b4e078efe42e231786312289b1eee5590f6a1"},"this transaction"),". Use ",(0,r.kt)("strong",{parentName:"p"},"Click to see More")," to see the calldata."),(0,r.kt)("p",null,"The function selector is ",(0,r.kt)("inlineCode",{parentName:"p"},"0xa9059cbb"),". There are several ",(0,r.kt)("a",{parentName:"p",href:"https://www.4byte.directory/signatures/?bytes4_signature=0xa9059cbb"},"known functions with this signature"),". In this case ",(0,r.kt)("a",{parentName:"p",href:"https://etherscan.io/address/0xa0b86991c6218b36c1d19d4a2e9eb0ce3606eb48#code"},"the contract source code")," has been uploaded to Etherscan, so we know the function is ",(0,r.kt)("inlineCode",{parentName:"p"},"transfer(address,uint256)"),"."),(0,r.kt)("p",null,"The rest of the data is:"),(0,r.kt)("pre",null,(0,r.kt)("code",{parentName:"pre",className:"language-text"},"0000000000000000000000004f6742badb049791cd9a37ea913f2bac38d01279\n000000000000000000000000000000000000000000000000000000003b0559f4\n")),(0,r.kt)("p",null,"According to the ABI specifications, integer values (such as addresses, which are 20-byte integers) appear in the ABI as 32-byte words, padded with zeros in the front. So we know that the ",(0,r.kt)("inlineCode",{parentName:"p"},"to")," address is ",(0,r.kt)("a",{parentName:"p",href:"https://etherscan.io/address/0x4f6742badb049791cd9a37ea913f2bac38d01279"},(0,r.kt)("inlineCode",{parentName:"a"},"4f6742badb049791cd9a37ea913f2bac38d01279")),". The ",(0,r.kt)("inlineCode",{parentName:"p"},"value")," is 0x3b0559f4 = 990206452."),(0,r.kt)("h2",{id:"types-of-transactions"},"Types of transactions"),(0,r.kt)("p",null,"On Ethereum there are a few different types of transactions:"),(0,r.kt)("ul",null,(0,r.kt)("li",{parentName:"ul"},(0,r.kt)("strong",{parentName:"li"},"Regular transactions:")," a transaction from one account to another."),(0,r.kt)("li",{parentName:"ul"},(0,r.kt)("strong",{parentName:"li"},"Contract deployment transactions:")," a transaction without a 'to' address, where the data field is used for the contract code."),(0,r.kt)("li",{parentName:"ul"},(0,r.kt)("strong",{parentName:"li"},"Execution of a contract:")," a transaction that interacts with a deployed smart contract. In this case, 'to' address is the smart contract address.")),(0,r.kt)("h3",{id:"on-gas"},"On gas"),(0,r.kt)("p",null,"As mentioned, transactions cost gas to execute. Simple transfer transactions require 21000 units of Gas."),(0,r.kt)("p",null,"So for Bob to send Alice 1 ETH at a ",(0,r.kt)("inlineCode",{parentName:"p"},"baseFeePerGas")," of 190 gwei and ",(0,r.kt)("inlineCode",{parentName:"p"},"maxPriorityFeePerGas")," of 10 gwei, Bob will need to pay the following fee:"),(0,r.kt)("pre",null,(0,r.kt)("code",{parentName:"pre"},"(190 + 10) * 21000 = 4,200,000 gwei\n--or--\n0.0042 ETH\n")),(0,r.kt)("p",null,"Bob's account will be debited ",(0,r.kt)("strong",{parentName:"p"},"-","1.0042 ETH")," (1 ETH for Alice + 0.0042 ETH in gas fees)"),(0,r.kt)("p",null,"Alice's account will be credited ",(0,r.kt)("strong",{parentName:"p"},"+1.0 ETH")),(0,r.kt)("p",null,"The base fee will be burned ",(0,r.kt)("strong",{parentName:"p"},"-","0.00399 ETH")),(0,r.kt)("p",null,"Validator keeps the tip ",(0,r.kt)("strong",{parentName:"p"},"+0.000210 ETH")),(0,r.kt)("p",null,"Gas is required for any smart contract interaction too."),(0,r.kt)("p",null,(0,r.kt)("img",{alt:"Diagram showing how unused gas is refunded",src:a(885606).Z,width:"1080",height:"607"})),(0,r.kt)("p",null,"Any gas not used in a transaction is refunded to the user account."),(0,r.kt)("h2",{id:"transaction-lifecycle"},"Transaction lifecycle"),(0,r.kt)("p",null,"Once the transaction has been submitted the following happens:"),(0,r.kt)("ol",null,(0,r.kt)("li",{parentName:"ol"},"A transaction hash is cryptographically generated: ",(0,r.kt)("inlineCode",{parentName:"li"},"0x97d99bc7729211111a21b12c933c949d4f31684f1d6954ff477d0477538ff017")),(0,r.kt)("li",{parentName:"ol"},"The transaction is then broadcasted to the network and added to a transaction pool consisting of all other pending network transactions."),(0,r.kt)("li",{parentName:"ol"},'A validator must pick your transaction and include it in a block in order to verify the transaction and consider it "successful".'),(0,r.kt)("li",{parentName:"ol"},'As time passes the block containing your transaction will be upgraded to "justified" then "finalized". These upgrades make it much more certain that your transaction was successful and will never be altered. Once a block is "finalized" it could only ever be changed by a network level attack that would cost many billions of dollars.')),(0,r.kt)("h2",{id:"a-visual-demo"},"A visual demo"),(0,r.kt)("p",null,"Watch Austin walk you through transactions, gas, and mining."),(0,r.kt)("iframe",{src:"https://www.youtube.com/embed/er-0ihqFQB0",frameborder:"0",title:"YouTube",allow:" accelerometer; autoplay; clipboard-write; encrypted-media; gyroscope; picture-in-picture",allowfullscreen:""}),(0,r.kt)("h2",{id:"typed-transaction-envelope"},"Typed Transaction Envelope"),(0,r.kt)("p",null,"Ethereum originally had one format for transactions. Each transaction contained a nonce, gas price, gas limit, to address, value, data, v, r, and s. These fields are RLP-encoded, to look something like this:"),(0,r.kt)("p",null,(0,r.kt)("inlineCode",{parentName:"p"},"RLP([nonce, gasPrice, gasLimit, to, value, data, v, r, s])")),(0,r.kt)("p",null,"Ethereum has evolved to support multiple types of transactions to allow for new features such as access lists and ",(0,r.kt)("a",{parentName:"p",href:"https://eips.ethereum.org/EIPS/eip-1559"},"EIP-1559")," to be implemented without affecting legacy transaction formats."),(0,r.kt)("p",null,(0,r.kt)("a",{parentName:"p",href:"https://eips.ethereum.org/EIPS/eip-2718"},"EIP-2718")," is what allows for this behaviour. Transactions are interpreted as:"),(0,r.kt)("p",null,(0,r.kt)("inlineCode",{parentName:"p"},"TransactionType || TransactionPayload")),(0,r.kt)("p",null,"Where the fields are defined as:"),(0,r.kt)("ul",null,(0,r.kt)("li",{parentName:"ul"},(0,r.kt)("inlineCode",{parentName:"li"},"TransactionType")," - a number between 0 and 0x7f, for a total of 128 possible transaction types."),(0,r.kt)("li",{parentName:"ul"},(0,r.kt)("inlineCode",{parentName:"li"},"TransactionPayload")," - an arbitrary byte array defined by the transaction type.")),(0,r.kt)("h2",{id:"coinbase-transactions"},"Coinbase Transactions"),(0,r.kt)("p",null,"All transactions that take place on the cryptocurrency network are not the result of payment between two people. Some transactions are a little bit different. The first transaction that took place was in\xa0",(0,r.kt)("a",{parentName:"p",href:"https://www.geeksforgeeks.org/what-is-bitcoin/"},"Bitcoin"),". It was a special transaction that formatted reward transactions for miners inside the genesis block (the very first block of a blockchain). Such reward transactions are specially allocated to the miner for their work. This type of transaction is known as a Coinbase transaction. These type of transactions generates new currencies that have never been spent (Like the printing of fiat currencies)."),(0,r.kt)("h3",{id:"characteristics-of-coinbase-transactions"},"Characteristics of Coinbase Transactions"),(0,r.kt)("p",null,(0,r.kt)("strong",{parentName:"p"},"1. The first transaction in a new block:"),"\xa0In most cases, the coinbase transaction is the first transaction in a new block. The reward generated by this transaction can be sent to a single or multiple wallet addresses like a normal cryptocurrency transaction."),(0,r.kt)("p",null,(0,r.kt)("strong",{parentName:"p"},"2. Spending the Cryptocurrency from a Coinbase Transaction:"),"\xa0The rewards earned by a coinbase transaction cannot be spent until they receive a certain number of confirmations in the\xa0",(0,r.kt)("a",{parentName:"p",href:"https://www.geeksforgeeks.org/blockchain-technology-introduction/"},"blockchain"),". For bitcoin, the number is 100. Bitcoins earned from coinbase transactions cannot be spent until it reaches 100 confirmation in the blockchain."),(0,r.kt)("p",null,(0,r.kt)("strong",{parentName:"p"},"3. Halving:"),"\xa0After a certain number of successful blocks being added to the blockchain the reward generated for adding each successful block becomes reduced by 50%. This phenomenon is known as halving. This event occurs in bitcoin after every 210000 successful blocks are mined. For bitcoin the rewards for every successful block were 50BTC per block initially then it went to 25BTC currently came down to 12.5 BTC. The reward for each coinbase transaction is determined by this value."),(0,r.kt)("p",null,(0,r.kt)("a",{parentName:"p",href:"https://www.geeksforgeeks.org/what-is-coinbase-transaction/"},"What is Coinbase Transaction? - GeeksforGeeks")),(0,r.kt)("h2",{id:"further-reading"},"Further reading"),(0,r.kt)("ul",null,(0,r.kt)("li",{parentName:"ul"},(0,r.kt)("a",{parentName:"li",href:"https://eips.ethereum.org/EIPS/eip-2718"},"EIP-2718: Typed Transaction Envelope")),(0,r.kt)("li",{parentName:"ul"},(0,r.kt)("a",{parentName:"li",href:"https://ethereum.org/en/developers/docs/data-structures-and-encoding/rlp/"},"Recursive-length prefix (RLP) serialization | ethereum.org"))))}u.isMDXComponent=!0},885606:(e,t,a)=>{a.d(t,{Z:()=>n});const n=a.p+"assets/images/Pasted image 20230305171843-76465de11f482c40325c3fc68b789812.png"}}]);